{
  "_format": "hh3-artifact-1",
  "contractName": "PaymentGateway",
  "sourceName": "contracts/PaymentGateway.sol",
  "abi": [
    {
      "inputs": [],
      "name": "ReentrancyGuardReentrantCall",
      "type": "error"
    },
    {
      "anonymous": false,
      "inputs": [
        {
          "indexed": true,
          "internalType": "address",
          "name": "from",
          "type": "address"
        },
        {
          "indexed": true,
          "internalType": "address",
          "name": "to",
          "type": "address"
        },
        {
          "indexed": false,
          "internalType": "uint256",
          "name": "amount",
          "type": "uint256"
        },
        {
          "indexed": false,
          "internalType": "string",
          "name": "message",
          "type": "string"
        },
        {
          "indexed": false,
          "internalType": "uint256",
          "name": "timestamp",
          "type": "uint256"
        }
      ],
      "name": "PaymentSent",
      "type": "event"
    },
    {
      "inputs": [],
      "name": "getAllTransactions",
      "outputs": [
        {
          "components": [
            {
              "internalType": "address",
              "name": "from",
              "type": "address"
            },
            {
              "internalType": "address",
              "name": "to",
              "type": "address"
            },
            {
              "internalType": "uint256",
              "name": "amount",
              "type": "uint256"
            },
            {
              "internalType": "string",
              "name": "message",
              "type": "string"
            },
            {
              "internalType": "uint256",
              "name": "timestamp",
              "type": "uint256"
            }
          ],
          "internalType": "struct PaymentGateway.Transaction[]",
          "name": "",
          "type": "tuple[]"
        }
      ],
      "stateMutability": "view",
      "type": "function"
    },
    {
      "inputs": [],
      "name": "getTransactionCount",
      "outputs": [
        {
          "internalType": "uint256",
          "name": "",
          "type": "uint256"
        }
      ],
      "stateMutability": "view",
      "type": "function"
    },
    {
      "inputs": [
        {
          "internalType": "address payable",
          "name": "_to",
          "type": "address"
        },
        {
          "internalType": "string",
          "name": "_message",
          "type": "string"
        }
      ],
      "name": "sendPayment",
      "outputs": [],
      "stateMutability": "payable",
      "type": "function"
    }
  ],
  "bytecode": "0x6080604052348015600e575f5ffd5b5060015f81905550611042806100235f395ff3fe608060405260043610610033575f3560e01c806327506f53146100375780632e7700f01461006157806385d6bff11461008b575b5f5ffd5b348015610042575f5ffd5b5061004b6100a7565b6040516100589190610827565b60405180910390f35b34801561006c575f5ffd5b50610075610250565b6040516100829190610856565b60405180910390f35b6100a560048036038101906100a091906109e7565b610259565b005b60606002805480602002602001604051908101604052809291908181526020015f905b82821015610247578382905f5260205f2090600502016040518060a00160405290815f82015f9054906101000a900473ffffffffffffffffffffffffffffffffffffffff1673ffffffffffffffffffffffffffffffffffffffff1673ffffffffffffffffffffffffffffffffffffffff168152602001600182015f9054906101000a900473ffffffffffffffffffffffffffffffffffffffff1673ffffffffffffffffffffffffffffffffffffffff1673ffffffffffffffffffffffffffffffffffffffff168152602001600282015481526020016003820180546101ae90610a6e565b80601f01602080910402602001604051908101604052809291908181526020018280546101da90610a6e565b80156102255780601f106101fc57610100808354040283529160200191610225565b820191905f5260205f20905b81548152906001019060200180831161020857829003601f168201915b50505050508152602001600482015481525050815260200190600101906100ca565b50505050905090565b5f600154905090565b6102616105e5565b5f34116102a3576040517f08c379a000000000000000000000000000000000000000000000000000000000815260040161029a90610b1e565b60405180910390fd5b5f73ffffffffffffffffffffffffffffffffffffffff168273ffffffffffffffffffffffffffffffffffffffff1603610311576040517f08c379a000000000000000000000000000000000000000000000000000000000815260040161030890610b86565b60405180910390fd5b8173ffffffffffffffffffffffffffffffffffffffff163373ffffffffffffffffffffffffffffffffffffffff160361037f576040517f08c379a000000000000000000000000000000000000000000000000000000000815260040161037690610bee565b60405180910390fd5b5f8273ffffffffffffffffffffffffffffffffffffffff16346040516103a490610c39565b5f6040518083038185875af1925050503d805f81146103de576040519150601f19603f3d011682016040523d82523d5f602084013e6103e3565b606091505b5050905080610427576040517f08c379a000000000000000000000000000000000000000000000000000000000815260040161041e90610c97565b60405180910390fd5b60015f81548092919061043990610ce2565b919050555060026040518060a001604052803373ffffffffffffffffffffffffffffffffffffffff1681526020018573ffffffffffffffffffffffffffffffffffffffff16815260200134815260200184815260200142815250908060018154018082558091505060019003905f5260205f2090600502015f909190919091505f820151815f015f6101000a81548173ffffffffffffffffffffffffffffffffffffffff021916908373ffffffffffffffffffffffffffffffffffffffff1602179055506020820151816001015f6101000a81548173ffffffffffffffffffffffffffffffffffffffff021916908373ffffffffffffffffffffffffffffffffffffffff1602179055506040820151816002015560608201518160030190816105629190610ec9565b506080820151816004015550508273ffffffffffffffffffffffffffffffffffffffff163373ffffffffffffffffffffffffffffffffffffffff167fda515d405df3308cfeb0f865bbc8fa44300e8e9bcf76dbe16a404ecd52c517553485426040516105d093929190610fd0565b60405180910390a3506105e1610629565b5050565b60025f5403610620576040517f3ee5aeb500000000000000000000000000000000000000000000000000000000815260040160405180910390fd5b60025f81905550565b60015f81905550565b5f81519050919050565b5f82825260208201905092915050565b5f819050602082019050919050565b5f73ffffffffffffffffffffffffffffffffffffffff82169050919050565b5f6106848261065b565b9050919050565b6106948161067a565b82525050565b5f819050919050565b6106ac8161069a565b82525050565b5f81519050919050565b5f82825260208201905092915050565b8281835e5f83830152505050565b5f601f19601f8301169050919050565b5f6106f4826106b2565b6106fe81856106bc565b935061070e8185602086016106cc565b610717816106da565b840191505092915050565b5f60a083015f8301516107375f86018261068b565b50602083015161074a602086018261068b565b50604083015161075d60408601826106a3565b506060830151848203606086015261077582826106ea565b915050608083015161078a60808601826106a3565b508091505092915050565b5f6107a08383610722565b905092915050565b5f602082019050919050565b5f6107be82610632565b6107c8818561063c565b9350836020820285016107da8561064c565b805f5b8581101561081557848403895281516107f68582610795565b9450610801836107a8565b925060208a019950506001810190506107dd565b50829750879550505050505092915050565b5f6020820190508181035f83015261083f81846107b4565b905092915050565b6108508161069a565b82525050565b5f6020820190506108695f830184610847565b92915050565b5f604051905090565b5f5ffd5b5f5ffd5b5f61088a8261065b565b9050919050565b61089a81610880565b81146108a4575f5ffd5b50565b5f813590506108b581610891565b92915050565b5f5ffd5b5f5ffd5b7f4e487b71000000000000000000000000000000000000000000000000000000005f52604160045260245ffd5b6108f9826106da565b810181811067ffffffffffffffff82111715610918576109176108c3565b5b80604052505050565b5f61092a61086f565b905061093682826108f0565b919050565b5f67ffffffffffffffff821115610955576109546108c3565b5b61095e826106da565b9050602081019050919050565b828183375f83830152505050565b5f61098b6109868461093b565b610921565b9050828152602081018484840111156109a7576109a66108bf565b5b6109b284828561096b565b509392505050565b5f82601f8301126109ce576109cd6108bb565b5b81356109de848260208601610979565b91505092915050565b5f5f604083850312156109fd576109fc610878565b5b5f610a0a858286016108a7565b925050602083013567ffffffffffffffff811115610a2b57610a2a61087c565b5b610a37858286016109ba565b9150509250929050565b7f4e487b71000000000000000000000000000000000000000000000000000000005f52602260045260245ffd5b5f6002820490506001821680610a8557607f821691505b602082108103610a9857610a97610a41565b5b50919050565b5f82825260208201905092915050565b7f5061796d656e7420616d6f756e74206d757374206265206772656174657220745f8201527f68616e207a65726f000000000000000000000000000000000000000000000000602082015250565b5f610b08602883610a9e565b9150610b1382610aae565b604082019050919050565b5f6020820190508181035f830152610b3581610afc565b9050919050565b7f496e76616c696420726563697069656e742061646472657373000000000000005f82015250565b5f610b70601983610a9e565b9150610b7b82610b3c565b602082019050919050565b5f6020820190508181035f830152610b9d81610b64565b9050919050565b7f43616e6e6f742073656e64207061796d656e7420746f20796f757273656c66005f82015250565b5f610bd8601f83610a9e565b9150610be382610ba4565b602082019050919050565b5f6020820190508181035f830152610c0581610bcc565b9050919050565b5f81905092915050565b50565b5f610c245f83610c0c565b9150610c2f82610c16565b5f82019050919050565b5f610c4382610c19565b9150819050919050565b7f4661696c656420746f2073656e642045746865720000000000000000000000005f82015250565b5f610c81601483610a9e565b9150610c8c82610c4d565b602082019050919050565b5f6020820190508181035f830152610cae81610c75565b9050919050565b7f4e487b71000000000000000000000000000000000000000000000000000000005f52601160045260245ffd5b5f610cec8261069a565b91507fffffffffffffffffffffffffffffffffffffffffffffffffffffffffffffffff8203610d1e57610d1d610cb5565b5b600182019050919050565b5f819050815f5260205f209050919050565b5f6020601f8301049050919050565b5f82821b905092915050565b5f60088302610d857fffffffffffffffffffffffffffffffffffffffffffffffffffffffffffffffff82610d4a565b610d8f8683610d4a565b95508019841693508086168417925050509392505050565b5f819050919050565b5f610dca610dc5610dc08461069a565b610da7565b61069a565b9050919050565b5f819050919050565b610de383610db0565b610df7610def82610dd1565b848454610d56565b825550505050565b5f5f905090565b610e0e610dff565b610e19818484610dda565b505050565b5b81811015610e3c57610e315f82610e06565b600181019050610e1f565b5050565b601f821115610e8157610e5281610d29565b610e5b84610d3b565b81016020851015610e6a578190505b610e7e610e7685610d3b565b830182610e1e565b50505b505050565b5f82821c905092915050565b5f610ea15f1984600802610e86565b1980831691505092915050565b5f610eb98383610e92565b9150826002028217905092915050565b610ed2826106b2565b67ffffffffffffffff811115610eeb57610eea6108c3565b5b610ef58254610a6e565b610f00828285610e40565b5f60209050601f831160018114610f31575f8415610f1f578287015190505b610f298582610eae565b865550610f90565b601f198416610f3f86610d29565b5f5b82811015610f6657848901518255600182019150602085019450602081019050610f41565b86831015610f835784890151610f7f601f891682610e92565b8355505b6001600288020188555050505b505050505050565b5f610fa2826106b2565b610fac8185610a9e565b9350610fbc8185602086016106cc565b610fc5816106da565b840191505092915050565b5f606082019050610fe35f830186610847565b8181036020830152610ff58185610f98565b90506110046040830184610847565b94935050505056fea2646970667358221220cdf37b7f35ffd71aa1fcef13d3e529090b25dfbcf65a855e29ab6ca75cf26dbb64736f6c634300081c0033",
  "linkReferences": {},
  "deployedLinkReferences": {},
  "immutableReferences": {},
  "inputSourceName": "project/contracts/PaymentGateway.sol",
  "buildInfoId": "solc-0_8_28-12815d8da8eb4e35316732e8c732e6b8513e0e55"
}